{
  "_format": "hh-sol-artifact-1",
  "contractName": "WatchTheWatchers",
  "sourceName": "contracts/WatchTheWatchers.sol",
  "abi": [
    {
      "anonymous": false,
      "inputs": [
        {
          "indexed": true,
          "internalType": "uint256",
          "name": "index",
          "type": "uint256"
        },
        {
          "indexed": false,
          "internalType": "string",
          "name": "id",
          "type": "string"
        },
        {
          "indexed": false,
          "internalType": "bool",
          "name": "challenged",
          "type": "bool"
        }
      ],
      "name": "SystemChallenged",
      "type": "event"
    },
    {
      "anonymous": false,
      "inputs": [
        {
          "indexed": true,
          "internalType": "uint256",
          "name": "index",
          "type": "uint256"
        },
        {
          "indexed": false,
          "internalType": "string",
          "name": "id",
          "type": "string"
        },
        {
          "indexed": false,
          "internalType": "uint256",
          "name": "totalFlags",
          "type": "uint256"
        },
        {
          "indexed": true,
          "internalType": "address",
          "name": "flagger",
          "type": "address"
        }
      ],
      "name": "SystemFlagged",
      "type": "event"
    },
    {
      "anonymous": false,
      "inputs": [
        {
          "indexed": true,
          "internalType": "uint256",
          "name": "index",
          "type": "uint256"
        },
        {
          "indexed": false,
          "internalType": "string",
          "name": "id",
          "type": "string"
        },
        {
          "indexed": false,
          "internalType": "string",
          "name": "systemType",
          "type": "string"
        },
        {
          "indexed": false,
          "internalType": "uint256",
          "name": "threatScore",
          "type": "uint256"
        },
        {
          "indexed": true,
          "internalType": "address",
          "name": "reporter",
          "type": "address"
        }
      ],
      "name": "SystemRegistered",
      "type": "event"
    },
    {
      "inputs": [
        {
          "internalType": "string",
          "name": "id",
          "type": "string"
        }
      ],
      "name": "challengeSystem",
      "outputs": [],
      "stateMutability": "nonpayable",
      "type": "function"
    },
    {
      "inputs": [
        {
          "internalType": "string",
          "name": "id",
          "type": "string"
        }
      ],
      "name": "flagSystem",
      "outputs": [],
      "stateMutability": "nonpayable",
      "type": "function"
    },
    {
      "inputs": [
        {
          "internalType": "string",
          "name": "id",
          "type": "string"
        }
      ],
      "name": "getSystem",
      "outputs": [
        {
          "components": [
            {
              "internalType": "string",
              "name": "id",
              "type": "string"
            },
            {
              "internalType": "string",
              "name": "name",
              "type": "string"
            },
            {
              "internalType": "string",
              "name": "systemType",
              "type": "string"
            },
            {
              "internalType": "string",
              "name": "location",
              "type": "string"
            },
            {
              "internalType": "uint256",
              "name": "threatScore",
              "type": "uint256"
            },
            {
              "internalType": "address",
              "name": "reporter",
              "type": "address"
            },
            {
              "internalType": "uint256",
              "name": "timestamp",
              "type": "uint256"
            },
            {
              "internalType": "uint256",
              "name": "flags",
              "type": "uint256"
            },
            {
              "internalType": "bool",
              "name": "challenged",
              "type": "bool"
            },
            {
              "internalType": "bool",
              "name": "active",
              "type": "bool"
            }
          ],
          "internalType": "struct WatchTheWatchers.SurveillanceSystem",
          "name": "",
          "type": "tuple"
        }
      ],
      "stateMutability": "view",
      "type": "function"
    },
    {
      "inputs": [],
      "name": "getSystemCount",
      "outputs": [
        {
          "internalType": "uint256",
          "name": "",
          "type": "uint256"
        }
      ],
      "stateMutability": "view",
      "type": "function"
    },
    {
      "inputs": [
        {
          "internalType": "uint256",
          "name": "",
          "type": "uint256"
        },
        {
          "internalType": "address",
          "name": "",
          "type": "address"
        }
      ],
      "name": "hasFlagged",
      "outputs": [
        {
          "internalType": "bool",
          "name": "",
          "type": "bool"
        }
      ],
      "stateMutability": "view",
      "type": "function"
    },
    {
      "inputs": [
        {
          "internalType": "string",
          "name": "id",
          "type": "string"
        },
        {
          "internalType": "string",
          "name": "name",
          "type": "string"
        },
        {
          "internalType": "string",
          "name": "systemType",
          "type": "string"
        },
        {
          "internalType": "string",
          "name": "location",
          "type": "string"
        },
        {
          "internalType": "uint256",
          "name": "threatScore",
          "type": "uint256"
        }
      ],
      "name": "registerSystem",
      "outputs": [],
      "stateMutability": "nonpayable",
      "type": "function"
    },
    {
      "inputs": [
        {
          "internalType": "uint256",
          "name": "",
          "type": "uint256"
        }
      ],
      "name": "systems",
      "outputs": [
        {
          "internalType": "string",
          "name": "id",
          "type": "string"
        },
        {
          "internalType": "string",
          "name": "name",
          "type": "string"
        },
        {
          "internalType": "string",
          "name": "systemType",
          "type": "string"
        },
        {
          "internalType": "string",
          "name": "location",
          "type": "string"
        },
        {
          "internalType": "uint256",
          "name": "threatScore",
          "type": "uint256"
        },
        {
          "internalType": "address",
          "name": "reporter",
          "type": "address"
        },
        {
          "internalType": "uint256",
          "name": "timestamp",
          "type": "uint256"
        },
        {
          "internalType": "uint256",
          "name": "flags",
          "type": "uint256"
        },
        {
          "internalType": "bool",
          "name": "challenged",
          "type": "bool"
        },
        {
          "internalType": "bool",
          "name": "active",
          "type": "bool"
        }
      ],
      "stateMutability": "view",
      "type": "function"
    }
  ],
  "bytecode": "0x608060405234801561001057600080fd5b50611488806100206000396000f3fe608060405234801561001057600080fd5b506004361061007d5760003560e01c80637b73f0a51161005b5780637b73f0a5146100dc5780637df56b6c146100fc578063a90b32361461010d578063d4afceb71461012057600080fd5b80630ffca60414610082578063160dd247146100b45780634cde68f8146100c9575b600080fd5b610095610090366004610e27565b61015e565b6040516100ab9a99989796959493929190610e90565b60405180910390f35b6100c76100c2366004610fc7565b6103f3565b005b6100c76100d736600461107c565b6106c3565b6100ef6100ea36600461107c565b610859565b6040516100ab91906110b9565b6000546040519081526020016100ab565b6100c761011b36600461107c565b610bf9565b61014e61012e366004611199565b600260209081526000928352604080842090915290825290205460ff1681565b60405190151581526020016100ab565b6000818154811061016e57600080fd5b9060005260206000209060090201600091509050806000018054610191906111d5565b80601f01602080910402602001604051908101604052809291908181526020018280546101bd906111d5565b801561020a5780601f106101df5761010080835404028352916020019161020a565b820191906000526020600020905b8154815290600101906020018083116101ed57829003601f168201915b50505050509080600101805461021f906111d5565b80601f016020809104026020016040519081016040528092919081815260200182805461024b906111d5565b80156102985780601f1061026d57610100808354040283529160200191610298565b820191906000526020600020905b81548152906001019060200180831161027b57829003601f168201915b5050505050908060020180546102ad906111d5565b80601f01602080910402602001604051908101604052809291908181526020018280546102d9906111d5565b80156103265780601f106102fb57610100808354040283529160200191610326565b820191906000526020600020905b81548152906001019060200180831161030957829003601f168201915b50505050509080600301805461033b906111d5565b80601f0160208091040260200160405190810160405280929190818152602001828054610367906111d5565b80156103b45780601f10610389576101008083540402835291602001916103b4565b820191906000526020600020905b81548152906001019060200180831161039757829003601f168201915b5050506004840154600585015460068601546007870154600890970154959692956001600160a01b039092169450925060ff808216916101009004168a565b600085511161043a5760405162461bcd60e51b815260206004820152600e60248201526d29aca9aa22a69024a2102922a89760911b60448201526064015b60405180910390fd5b60018560405161044a9190611209565b9081526020016040518091039020546000146104b75760405162461bcd60e51b815260206004820152602660248201527f53595354454d20494420414c52454144592052454749535445524544204f4e2d60448201526521a420a4a71760d11b6064820152608401610431565b600a8111156105085760405162461bcd60e51b815260206004820152601e60248201527f5448524541542053434f52452043414e4e4f54204558434545442031302e00006044820152606401610431565b60408051610140810182528681526020810186905290810184905260608101839052608081018290523360a08201524260c0820152600060e0820181905261010082018190526001610120830181905281549081018255908052815160099091027f290decd9548b62a8d60345a988386fc84ba6bc95484008f6362f93160ef3e563019081906105989082611273565b50602082015160018201906105ad9082611273565b50604082015160028201906105c29082611273565b50606082015160038201906105d79082611273565b506080820151600482015560a08201516005820180546001600160a01b0319166001600160a01b0390921691909117905560c0820151600682015560e0820151600782015561010080830151600890920180546101209094015161ffff1990941692151561ff00191692909217921515029190911790556000546040518190600190610664908990611209565b9081526040519081900360200190205533610680600183611349565b7f5349662027468f9e90f55da03375c7816e051f849400ea0b955be57d0257c3df8887866040516106b393929190611362565b60405180910390a3505050505050565b8060006001826040516106d69190611209565b908152602001604051809103902054116107025760405162461bcd60e51b815260040161043190611398565b6000600180846040516107159190611209565b90815260200160405180910390205461072e9190611349565b90506000808281548110610744576107446113e3565b9060005260206000209060090201600701541180610790575060008181548110610770576107706113e3565b60009182526020909120600990910201600501546001600160a01b031633145b6107dc5760405162461bcd60e51b815260206004820181905260248201527f494e53554646494349454e5420424153495320544f204348414c4c454e47452e6044820152606401610431565b6001600082815481106107f1576107f16113e3565b906000526020600020906009020160080160006101000a81548160ff021916908315150217905550807f3d5383e00435c5ef42c7d940aaa6dbf431c9287b6fccc110dfc62a86394fbc6584600160405161084c9291906113f9565b60405180910390a2505050565b6108bc604051806101400160405280606081526020016060815260200160608152602001606081526020016000815260200160006001600160a01b0316815260200160008152602001600081526020016000151581526020016000151581525090565b8160006001826040516108cf9190611209565b908152602001604051809103902054116108fb5760405162461bcd60e51b815260040161043190611398565b60006001808560405161090e9190611209565b9081526020016040518091039020546109279190611349565b90506000818154811061093c5761093c6113e3565b906000526020600020906009020160405180610140016040529081600082018054610966906111d5565b80601f0160208091040260200160405190810160405280929190818152602001828054610992906111d5565b80156109df5780601f106109b4576101008083540402835291602001916109df565b820191906000526020600020905b8154815290600101906020018083116109c257829003601f168201915b505050505081526020016001820180546109f8906111d5565b80601f0160208091040260200160405190810160405280929190818152602001828054610a24906111d5565b8015610a715780601f10610a4657610100808354040283529160200191610a71565b820191906000526020600020905b815481529060010190602001808311610a5457829003601f168201915b50505050508152602001600282018054610a8a906111d5565b80601f0160208091040260200160405190810160405280929190818152602001828054610ab6906111d5565b8015610b035780601f10610ad857610100808354040283529160200191610b03565b820191906000526020600020905b815481529060010190602001808311610ae657829003601f168201915b50505050508152602001600382018054610b1c906111d5565b80601f0160208091040260200160405190810160405280929190818152602001828054610b48906111d5565b8015610b955780601f10610b6a57610100808354040283529160200191610b95565b820191906000526020600020905b815481529060010190602001808311610b7857829003601f168201915b50505091835250506004820154602082015260058201546001600160a01b03166040820152600682015460608201526007820154608082015260089091015460ff808216151560a084015261010090910416151560c0909101529250505b50919050565b806000600182604051610c0c9190611209565b90815260200160405180910390205411610c385760405162461bcd60e51b815260040161043190611398565b600060018084604051610c4b9190611209565b908152602001604051809103902054610c649190611349565b600081815260026020908152604080832033845290915290205490915060ff1615610ce15760405162461bcd60e51b815260206004820152602760248201527f414c524541445920464c414747454420425920544849532057414c4c4554204160448201526621a1a7aaa72a1760c91b6064820152608401610431565b60008181526002602090815260408083203384529091528120805460ff19166001908117909155815490919083908110610d1d57610d1d6113e3565b90600052602060002090600902016007016000828254610d3d919061141d565b92505081905550336001600160a01b0316817f44e3e4e4b311399f89c132dd0738939eb108b3c1902dff30950578794e9bd97a8560008581548110610d8457610d846113e3565b906000526020600020906009020160070154604051610da4929190611430565b60405180910390a3600560008281548110610dc157610dc16113e3565b90600052602060002090600902016007015410158015610e08575060008181548110610def57610def6113e3565b600091825260209091206008600990920201015460ff16155b15610e22576001600082815481106107f1576107f16113e3565b505050565b600060208284031215610e3957600080fd5b5035919050565b60005b83811015610e5b578181015183820152602001610e43565b50506000910152565b60008151808452610e7c816020860160208601610e40565b601f01601f19169290920160200192915050565b6000610140808352610ea48184018e610e64565b90508281036020840152610eb8818d610e64565b90508281036040840152610ecc818c610e64565b90508281036060840152610ee0818b610e64565b608084019990995250506001600160a01b039590951660a086015260c085019390935260e08401919091521515610100830152151561012090910152949350505050565b634e487b7160e01b600052604160045260246000fd5b600082601f830112610f4b57600080fd5b813567ffffffffffffffff80821115610f6657610f66610f24565b604051601f8301601f19908116603f01168101908282118183101715610f8e57610f8e610f24565b81604052838152866020858801011115610fa757600080fd5b836020870160208301376000602085830101528094505050505092915050565b600080600080600060a08688031215610fdf57600080fd5b853567ffffffffffffffff80821115610ff757600080fd5b61100389838a01610f3a565b9650602088013591508082111561101957600080fd5b61102589838a01610f3a565b9550604088013591508082111561103b57600080fd5b61104789838a01610f3a565b9450606088013591508082111561105d57600080fd5b5061106a88828901610f3a565b95989497509295608001359392505050565b60006020828403121561108e57600080fd5b813567ffffffffffffffff8111156110a557600080fd5b6110b184828501610f3a565b949350505050565b60208152600082516101408060208501526110d8610160850183610e64565b91506020850151601f19808685030160408701526110f68483610e64565b935060408701519150808685030160608701526111138483610e64565b93506060870151915080868503016080870152506111318382610e64565b925050608085015160a085015260a085015161115860c08601826001600160a01b03169052565b5060c085015160e085015260e08501516101008181870152808701519150506101206111878187018315159052565b90950151151593019290925250919050565b600080604083850312156111ac57600080fd5b8235915060208301356001600160a01b03811681146111ca57600080fd5b809150509250929050565b600181811c908216806111e957607f821691505b602082108103610bf357634e487b7160e01b600052602260045260246000fd5b6000825161121b818460208701610e40565b9190910192915050565b601f821115610e2257600081815260208120601f850160051c8101602086101561124c5750805b601f850160051c820191505b8181101561126b57828155600101611258565b505050505050565b815167ffffffffffffffff81111561128d5761128d610f24565b6112a18161129b84546111d5565b84611225565b602080601f8311600181146112d657600084156112be5750858301515b600019600386901b1c1916600185901b17855561126b565b600085815260208120601f198616915b82811015611305578886015182559484019460019091019084016112e6565b50858210156113235787850151600019600388901b60f8161c191681555b5050505050600190811b01905550565b634e487b7160e01b600052601160045260246000fd5b8181038181111561135c5761135c611333565b92915050565b6060815260006113756060830186610e64565b82810360208401526113878186610e64565b915050826040830152949350505050565b6020808252602b908201527f53595354454d20444f4553204e4f5420455849535420494e204f4e2d4348414960408201526a27102922a3a4a9aa292c9760a91b606082015260800190565b634e487b7160e01b600052603260045260246000fd5b60408152600061140c6040830185610e64565b905082151560208301529392505050565b8082018082111561135c5761135c611333565b6040815260006114436040830185610e64565b9050826020830152939250505056fea26469706673582212208e6f8fdfa946c9ac41bfdd7d769219c35900073b71179680c062cf8ac97fed0764736f6c63430008140033",
  "linkReferences": {},
  "deployedLinkReferences": {}
}